:100000000C9434000C9451000C9451000C94510049
:100010000C9451000C9451000C9451000C9451001C
:100020000C9451000C9451000C9451000C949C00C1
:100030000C9451000C9451000C9453000C945100FA
:100040000C9451000C9451000C9451000C945100EC
:100050000C9451000C9451000C9451000C945100DC
:100060000C9451000C94510011241FBECFEFD8E026
:10007000DEBFCDBF11E0A0E0B1E0EEEAF9E002C0E2
:1000800005900D92A030B107D9F721E0A0E0B1E0D2
:1000900001C01D92A532B207E1F70E946A040C94D8
:1000A000D5040C9400001F920F920FB60F921124EA
:1000B0008F93EF93FF93EDE0F1E083818F5F838374
:1000C000FF91EF918F910F900FBE0F901F90189599
:1000D000EAE7F0E0808180648083808186FDFDCF47
:1000E000809178009091790008950E94680085368B
:1000F0009105C0F09C0124563109293C3105A0F03E
:10010000285C31092D3241E0340780F0285C310948
:100110002D32314068F0885E93408536910550F06D
:1001200080E0089580E0089581E0089582E00895D8
:1001300083E0089584E008951F920F920FB60F9206
:1001400011242F933F934F935F936F937F938F93DC
:100150009F93AF93BF93EF93FF9389B1807690E025
:100160009595879595958795959587959595879577
:100170009595879520910001282B243061F018F483
:10018000213029F00BC02B3031F02E3039F421E032
:100190002093110103C022E020931101880F880FE2
:1001A000809300010E947500823039F0833049F05D
:1001B000813051F480930A0107C081E080930C01E3
:1001C00003C081E080930B01FF91EF91BF91AF914C
:1001D0009F918F917F916F915F914F913F912F915F
:1001E0000F900FBE0F901F901895109278001092EC
:1001F000790010927C00EAE7F0E0808187688083D4
:10020000089589E190E09093890080938800E1E867
:10021000F0E0808188608083808183608083EFE666
:10022000F0E0808182608083089584B5826084BD1F
:1002300085B5856085BD8FEF87BDEEE6F0E08081F6
:100240008260808308958FEF84B98AB987B915B821
:100250001BB818B80895CF93DF93809102018111E4
:1002600038C0A0E2B1E09C91E6E0F1E039E2939F72
:10027000212D112422952F70208364E6269F90194A
:1002800011244DEC949F212D112426952695269519
:10029000218311969C91949F212D112426952695BA
:1002A0002695220F522F550F550F250F592F521BF0
:1002B0005283939F312D112432953F70369F9019B0
:1002C0001124949F912D112496959695969593833C
:1002D00045C08130D1F490912001E6E0F1E029E2BF
:1002E000929F212D112422952F70208334E6239F85
:1002F000901911242DEC929F912D1124969596958D
:10030000969591831282138245C0823039F5E6E0DA
:10031000F1E010821182909121014DEC949F212DEA
:100320001124269526952695220F322F330F330F51
:10033000230F592F521B528329E2929F212D112402
:1003400022952F7034E6239F90191124949F912DAC
:100350001124969596959695938345C08330D1F454
:1003600090911501E6E0F1E029E2929F212D112400
:1003700022952F70208354E6259F901911242DEC8F
:10038000929F912D11249695969596959183128220
:10039000138234C0843039F5E6E0F1E01082118236
:1003A000909116014DEC949F212D112426952695B0
:1003B0002695220F322F330F330F230F392F321B85
:1003C000328329E2929F212D112422952F7054E629
:1003D000259F90191124949F912D112496959695FF
:1003E000969593831FC0853049F4E6E0F1E01082D2
:1003F0001182128290912301938333C0863091F44D
:10040000E0910101A6E0B1E0EC9311961C921197E6
:1004100012961C921297F0E0EB5EFE4F94811396B9
:100420009C932BC08730E9F4E6E0F1E088E080831C
:10043000118230910F012DEC329F812D1124869570
:1004400086958695880F982F990F990F890F381BDD
:100450003283329F812D11248695869586958383DC
:100460004FC0883051F4E6E0F1E089E080831182EA
:10047000128280910E01838343C0893009F040C00D
:100480004091030150910401E6E0F1E09A013695B4
:10049000279536952795ABE7B4E10E94C60496955B
:1004A0008795808364E6689F9001699F300D1124D1
:1004B000CA01821B930B9C01ADECBCEC0E94C604EC
:1004C000EC01D695C795D695C795D695C795C183A6
:1004D0009A010E94C604969587959695879596955C
:1004E00087959C01220F331F880F991F880F991F32
:1004F000880F991F820F931F481B590B4283C38398
:10050000DF91CF910895CF93DF93C82FD62F0E940C
:10051000AE0480ED0E94BB04C13041F582E00E9430
:10052000BB04D13041F4809120018F5F0E947D0493
:100530000E94BB0471C0D23041F4809120018150EF
:100540000E947D040E94BB0467C0D33031F480E078
:100550000E947D040E94BB045FC0D43009F05CC0DF
:1005600087E10E947D040E94BB0456C0C23061F541
:1005700080E00E94BB0480E00E947D040E94BB04D6
:10058000D13041F4809121018F5F0E947D040E944F
:10059000BB0442C0D23041F48091210181500E94BD
:1005A0007D040E94BB0438C0D33031F480E00E9447
:1005B0007D040E94BB0430C0D43071F58BE30E94EF
:1005C0007D040E94BB0428C0C33031F583E00E9443
:1005D000BB04D13041F4809123018F5F0E947D04E0
:1005E0000E94BB0412C0D23041F48091230181509B
:1005F0000E947D040E94BB040FC0D33031F481E01F
:100600000E947D040E94BB0407C0D43029F487E017
:100610000E947D040E94BB040E94B704DF91CF9129
:100620000895CF93C82F80910201893041F5CC23E2
:1006300099F0809103019091040180339A4230F443
:100640000E94AE0483E60E94BB04F0C00E94AE0488
:1006500083E60E94BB04EAC08091030190910401EB
:100660008130994130F00E94AE0483E60E94BB04C1
:10067000D8C00E94AE0483E60E94BB04D2C0813081
:10068000F1F4CC2371F080912001873128F461E0EE
:1006900081E00E948302D5C063E081E00E94830272
:1006A000D0C080912001823028F062E081E00E9479
:1006B0008302C1C064E081E00E948302BCC08091DB
:1006C00002018230F1F4CC2371F0809121018B334F
:1006D00028F461E082E00E948302B9C063E082E016
:1006E0000E948302B4C080912101823028F062E030
:1006F00082E00E948302B1C064E082E00E94830233
:10070000ACC0809102018330C1F4CC2359F08091B8
:100710001501873120F48F5F8093150148C0109236
:10072000150145C080911501823020F081508093E1
:1007300015013DC0109215013AC08430C1F4CC239C
:1007400059F0809116018B3320F48F5F809316014E
:100750002EC0109216012BC080911601823020F01D
:1007600081508093160123C01092160120C085305D
:10077000F1F4CC2371F080912301863028F461E0FC
:1007800083E00E94830272C063E083E00E948302E0
:100790006DC080912301823028F062E083E00E94E6
:1007A00083026CC064E083E00E94830267C0809192
:1007B0000201863079F4E0910101CC2331F0F0E0C0
:1007C000EB5EFE4F81E0848372C0F0E0EB5EFE4F93
:1007D00014826DC08730C9F4CC2359F080910F0189
:1007E000843120F48F5F80930F0161C010920F015C
:1007F0005EC080910F01823020F0815080930F0104
:1008000056C084E180930F0152C0883009F04FC078
:10081000CC2321F081E080930E0149C010920E019B
:1008200046C080910201813071F53BCF8091020179
:10083000813079F528CF80910201823009F061CFB3
:1008400052CF80910201823009F05BCF3ECF809180
:100850000201833009F071CF5ACF809102018330B9
:1008600009F06BCF5FCFE0910101A9CF8091020128
:100870008630A9F4F8CFE0910101A7CF8091020161
:10088000863089F4F8CF80910201823009F039CFA7
:100890002ACF80910201823009F033CF16CF873002
:1008A00009F0B3CF9BCF873009F0AFCFA2CFCF9164
:1008B000089580911101813029F40E941103109252
:1008C00011010895823029F480E00E9411031092F2
:1008D00011010895109202010E9423010E9401015A
:1008E0000E9415010E94AA040E94F5000E94900433
:1008F0000E942B010E945904FBCF9DEC899F912DF2
:10090000112496959695969520E1929FA001112429
:10091000990F292F220F220F920F891B842B0895E4
:100920000E94AE0483E60E94BB0481E00E94BB04E7
:1009300080E10E94BB0485E00E94BB040E94B704D2
:100940002FEF81EE94E0215080409040E1F700C00D
:100950000000089588E48093B800089584EA8093A5
:10096000BC00ECEBF0E080818823ECF7089584E98B
:100970008093BC0008958093BB0084E88093BC0002
:10098000ECEBF0E080818823ECF70895A29FB001A2
:10099000B39FC001A39F700D811D1124911DB29FB3
:0E09A000700D811D1124911D0895F894FFCF54
:00000001FF
